{
  "contractName": "StoreBuxx",
  "abi": [
    {
      "constant": false,
      "inputs": [],
      "name": "resume",
      "outputs": [],
      "payable": false,
      "stateMutability": "nonpayable",
      "type": "function"
    },
    {
      "constant": true,
      "inputs": [
        {
          "name": "_etherPrice",
          "type": "uint256"
        },
        {
          "name": "_weiAmount",
          "type": "uint256"
        }
      ],
      "name": "wei2buxx",
      "outputs": [
        {
          "name": "",
          "type": "uint256"
        }
      ],
      "payable": false,
      "stateMutability": "pure",
      "type": "function"
    },
    {
      "constant": true,
      "inputs": [],
      "name": "totalSupply",
      "outputs": [
        {
          "name": "",
          "type": "uint256"
        }
      ],
      "payable": false,
      "stateMutability": "view",
      "type": "function"
    },
    {
      "constant": false,
      "inputs": [
        {
          "name": "customer",
          "type": "address"
        },
        {
          "name": "buxxAmount",
          "type": "uint256"
        }
      ],
      "name": "redeem",
      "outputs": [
        {
          "name": "success",
          "type": "bool"
        }
      ],
      "payable": false,
      "stateMutability": "nonpayable",
      "type": "function"
    },
    {
      "constant": true,
      "inputs": [
        {
          "name": "",
          "type": "address"
        }
      ],
      "name": "balances",
      "outputs": [
        {
          "name": "",
          "type": "uint256"
        }
      ],
      "payable": false,
      "stateMutability": "view",
      "type": "function"
    },
    {
      "constant": false,
      "inputs": [],
      "name": "kill",
      "outputs": [],
      "payable": false,
      "stateMutability": "nonpayable",
      "type": "function"
    },
    {
      "constant": true,
      "inputs": [
        {
          "name": "_etherPrice",
          "type": "uint256"
        },
        {
          "name": "_buxxAmount",
          "type": "uint256"
        }
      ],
      "name": "buxx2wei",
      "outputs": [
        {
          "name": "",
          "type": "uint256"
        }
      ],
      "payable": false,
      "stateMutability": "pure",
      "type": "function"
    },
    {
      "constant": false,
      "inputs": [],
      "name": "halt",
      "outputs": [],
      "payable": false,
      "stateMutability": "nonpayable",
      "type": "function"
    },
    {
      "constant": true,
      "inputs": [
        {
          "name": "customer",
          "type": "address"
        }
      ],
      "name": "balanceOf",
      "outputs": [
        {
          "name": "balance",
          "type": "uint256"
        }
      ],
      "payable": false,
      "stateMutability": "view",
      "type": "function"
    },
    {
      "constant": false,
      "inputs": [
        {
          "name": "customer",
          "type": "address"
        },
        {
          "name": "buxxAmount",
          "type": "uint256"
        }
      ],
      "name": "credit",
      "outputs": [
        {
          "name": "success",
          "type": "bool"
        }
      ],
      "payable": false,
      "stateMutability": "nonpayable",
      "type": "function"
    },
    {
      "constant": false,
      "inputs": [
        {
          "name": "etherPrice",
          "type": "uint256"
        }
      ],
      "name": "purchase",
      "outputs": [
        {
          "name": "success",
          "type": "bool"
        }
      ],
      "payable": true,
      "stateMutability": "payable",
      "type": "function"
    },
    {
      "inputs": [
        {
          "name": "_owner",
          "type": "address"
        },
        {
          "name": "_totalSupply",
          "type": "uint256"
        }
      ],
      "payable": false,
      "stateMutability": "nonpayable",
      "type": "constructor"
    },
    {
      "anonymous": false,
      "inputs": [
        {
          "indexed": false,
          "name": "_customer",
          "type": "address"
        },
        {
          "indexed": false,
          "name": "_weiAmount",
          "type": "uint256"
        },
        {
          "indexed": false,
          "name": "_buxxAmount",
          "type": "uint256"
        }
      ],
      "name": "Purchased",
      "type": "event"
    },
    {
      "anonymous": false,
      "inputs": [
        {
          "indexed": false,
          "name": "_customer",
          "type": "address"
        },
        {
          "indexed": false,
          "name": "_buxxAmount",
          "type": "uint256"
        },
        {
          "indexed": false,
          "name": "_newBalance",
          "type": "uint256"
        }
      ],
      "name": "Redeemed",
      "type": "event"
    },
    {
      "anonymous": false,
      "inputs": [
        {
          "indexed": false,
          "name": "_customer",
          "type": "address"
        },
        {
          "indexed": false,
          "name": "_buxxAmount",
          "type": "uint256"
        },
        {
          "indexed": false,
          "name": "_newBalance",
          "type": "uint256"
        }
      ],
      "name": "Credited",
      "type": "event"
    },
    {
      "anonymous": false,
      "inputs": [
        {
          "indexed": false,
          "name": "_owner",
          "type": "address"
        }
      ],
      "name": "Halted",
      "type": "event"
    },
    {
      "anonymous": false,
      "inputs": [
        {
          "indexed": false,
          "name": "_owner",
          "type": "address"
        }
      ],
      "name": "Resumed",
      "type": "event"
    }
  ],
  "bytecode": "0x6060604052341561000f57600080fd5b604051604080610e3a83398101604052808051906020019091908051906020019091905050816000806101000a81548173ffffffffffffffffffffffffffffffffffffffff021916908373ffffffffffffffffffffffffffffffffffffffff16021790555080600260008060009054906101000a900473ffffffffffffffffffffffffffffffffffffffff1673ffffffffffffffffffffffffffffffffffffffff1673ffffffffffffffffffffffffffffffffffffffff16815260200190815260200160002081905550806001819055506000600360006101000a81548160ff0219169083151502179055505050610d2e8061010c6000396000f3006060604052600436106100af576000357c0100000000000000000000000000000000000000000000000000000000900463ffffffff168063046f7da2146100b457806306e6b1d0146100c957806318160ddd146101095780631e9a69501461013257806327e235e31461018c57806341c0e1b5146101d957806354b95994146101ee5780635ed7ca5b1461022e57806370a0823114610243578063ef6506db14610290578063efef39a1146102ea575b600080fd5b34156100bf57600080fd5b6100c761031a565b005b34156100d457600080fd5b6100f36004808035906020019091908035906020019091905050610416565b6040518082815260200191505060405180910390f35b341561011457600080fd5b61011c61043b565b6040518082815260200191505060405180910390f35b341561013d57600080fd5b610172600480803573ffffffffffffffffffffffffffffffffffffffff16906020019091908035906020019091905050610441565b604051808215151515815260200191505060405180910390f35b341561019757600080fd5b6101c3600480803573ffffffffffffffffffffffffffffffffffffffff16906020019091905050610663565b6040518082815260200191505060405180910390f35b34156101e457600080fd5b6101ec61067b565b005b34156101f957600080fd5b6102186004808035906020019091908035906020019091905050610710565b6040518082815260200191505060405180910390f35b341561023957600080fd5b610241610735565b005b341561024e57600080fd5b61027a600480803573ffffffffffffffffffffffffffffffffffffffff16906020019091905050610831565b6040518082815260200191505060405180910390f35b341561029b57600080fd5b6102d0600480803573ffffffffffffffffffffffffffffffffffffffff1690602001909190803590602001909190505061087a565b604051808215151515815260200191505060405180910390f35b6103006004808035906020019091905050610abd565b604051808215151515815260200191505060405180910390f35b6000809054906101000a900473ffffffffffffffffffffffffffffffffffffffff1673ffffffffffffffffffffffffffffffffffffffff163373ffffffffffffffffffffffffffffffffffffffff1614151561037557600080fd5b6000600360006101000a81548160ff0219169083151502179055507f5d287a3a02ade76478d8449abebe9dc45b38421247132b68127dd3cd6c05f3cf6000809054906101000a900473ffffffffffffffffffffffffffffffffffffffff16604051808273ffffffffffffffffffffffffffffffffffffffff1673ffffffffffffffffffffffffffffffffffffffff16815260200191505060405180910390a1565b600080670de0b6b3a764000084840281151561042e57fe5b0490508091505092915050565b60015481565b60008060009054906101000a900473ffffffffffffffffffffffffffffffffffffffff1673ffffffffffffffffffffffffffffffffffffffff163373ffffffffffffffffffffffffffffffffffffffff1614151561049e57600080fd5b81600260008573ffffffffffffffffffffffffffffffffffffffff1673ffffffffffffffffffffffffffffffffffffffff16815260200190815260200160002054101515156104ec57600080fd5b81600260008060009054906101000a900473ffffffffffffffffffffffffffffffffffffffff1673ffffffffffffffffffffffffffffffffffffffff1673ffffffffffffffffffffffffffffffffffffffff1681526020019081526020016000206000828254019250508190555081600260008573ffffffffffffffffffffffffffffffffffffffff1673ffffffffffffffffffffffffffffffffffffffff168152602001908152602001600020600082825403925050819055507ff3a670cd3af7d64b488926880889d08a8585a138ff455227af6737339a1ec2628383600260008773ffffffffffffffffffffffffffffffffffffffff1673ffffffffffffffffffffffffffffffffffffffff16815260200190815260200160002054604051808473ffffffffffffffffffffffffffffffffffffffff1673ffffffffffffffffffffffffffffffffffffffff168152602001838152602001828152602001935050505060405180910390a16001905092915050565b60026020528060005260406000206000915090505481565b6000809054906101000a900473ffffffffffffffffffffffffffffffffffffffff1673ffffffffffffffffffffffffffffffffffffffff163373ffffffffffffffffffffffffffffffffffffffff161415156106d657600080fd5b6000809054906101000a900473ffffffffffffffffffffffffffffffffffffffff1673ffffffffffffffffffffffffffffffffffffffff16ff5b60008083670de0b6b3a7640000840281151561072857fe5b0490508091505092915050565b6000809054906101000a900473ffffffffffffffffffffffffffffffffffffffff1673ffffffffffffffffffffffffffffffffffffffff163373ffffffffffffffffffffffffffffffffffffffff1614151561079057600080fd5b6001600360006101000a81548160ff0219169083151502179055507f3b7172ab619202d651b1c577912afaf1ba761f0f197af15c3d0ea5c4b7600ce96000809054906101000a900473ffffffffffffffffffffffffffffffffffffffff16604051808273ffffffffffffffffffffffffffffffffffffffff1673ffffffffffffffffffffffffffffffffffffffff16815260200191505060405180910390a1565b6000600260008373ffffffffffffffffffffffffffffffffffffffff1673ffffffffffffffffffffffffffffffffffffffff168152602001908152602001600020549050919050565b60008060009054906101000a900473ffffffffffffffffffffffffffffffffffffffff1673ffffffffffffffffffffffffffffffffffffffff163373ffffffffffffffffffffffffffffffffffffffff161415156108d757600080fd5b81600260008060009054906101000a900473ffffffffffffffffffffffffffffffffffffffff1673ffffffffffffffffffffffffffffffffffffffff1673ffffffffffffffffffffffffffffffffffffffff168152602001908152602001600020541015151561094657600080fd5b81600260008573ffffffffffffffffffffffffffffffffffffffff1673ffffffffffffffffffffffffffffffffffffffff1681526020019081526020016000206000828254019250508190555081600260008060009054906101000a900473ffffffffffffffffffffffffffffffffffffffff1673ffffffffffffffffffffffffffffffffffffffff1673ffffffffffffffffffffffffffffffffffffffff168152602001908152602001600020600082825403925050819055507f796a6ec99f41042b589b3c8dfab9ec6ae027e9c6599a6a4e311aa00a19ebdb1f8383600260008773ffffffffffffffffffffffffffffffffffffffff1673ffffffffffffffffffffffffffffffffffffffff16815260200190815260200160002054604051808473ffffffffffffffffffffffffffffffffffffffff1673ffffffffffffffffffffffffffffffffffffffff168152602001838152602001828152602001935050505060405180910390a16001905092915050565b60008060001515600360009054906101000a900460ff161515141515610ae257600080fd5b670de0b6b3a7640000833402811515610af757fe5b04905080600260008060009054906101000a900473ffffffffffffffffffffffffffffffffffffffff1673ffffffffffffffffffffffffffffffffffffffff1673ffffffffffffffffffffffffffffffffffffffff1681526020019081526020016000205410151515610b6957600080fd5b80600260003373ffffffffffffffffffffffffffffffffffffffff1673ffffffffffffffffffffffffffffffffffffffff1681526020019081526020016000206000828254019250508190555080600260008060009054906101000a900473ffffffffffffffffffffffffffffffffffffffff1673ffffffffffffffffffffffffffffffffffffffff1673ffffffffffffffffffffffffffffffffffffffff168152602001908152602001600020600082825403925050819055506000809054906101000a900473ffffffffffffffffffffffffffffffffffffffff1673ffffffffffffffffffffffffffffffffffffffff166108fc349081150290604051600060405180830381858888f193505050501515610c8557600080fd5b7ff761777482b4b40d2bcc0d050cfba6829900a2d8b3484bd0244ec0feeb3db504333483604051808473ffffffffffffffffffffffffffffffffffffffff1673ffffffffffffffffffffffffffffffffffffffff168152602001838152602001828152602001935050505060405180910390a160019150509190505600a165627a7a723058209063ac86e8745c1ac108ce304beebff5ab243bd99e04746461b7486031bd54fa0029",
  "source": "pragma solidity ^0.4.18;\n\ncontract StoreBuxx  {\n\n    address internal owner;\n    uint256 public totalSupply;\n    mapping (address => uint256) public balances;\n    bool internal suspended;\n    \n    modifier onlyOwner() { require(msg.sender == owner); _; }\n\n    function StoreBuxx(address _owner, uint256 _totalSupply) public {\n        owner = _owner;\n        balances[owner] = _totalSupply;               \n        totalSupply = _totalSupply;                      \n        suspended = false;\n    }\n\n    /// @notice convert wei to USD based on ether price\n    function wei2buxx(uint256 _etherPrice, uint256 _weiAmount) public pure returns (uint256) {\n        uint256 buxxAmount = (_weiAmount * _etherPrice) / 1 ether;\n        return buxxAmount;\n    }\n\n    /// @notice convert USD to wei based on ether price\n    /// @dev Do not use! may experience rounding issues, exact results may be off by a few wei\n    function buxx2wei(uint256 _etherPrice, uint256 _buxxAmount) public pure returns (uint256) {\n        uint256 weiAmount = (_buxxAmount * 1 ether) / _etherPrice;\n        return weiAmount;\n    }\n\n    event Purchased(address _customer, uint256 _weiAmount, uint256 _buxxAmount);\n\n    /// @notice Invoked by customer to purchase Store Buxx. The incoming payable wei\n    /// is converted to the number of Store Buxx based on the provided price of Ether.\n    /// The value of a single Store Buck is approximately 1 cent in USD. \n    /// The customer's balance is increased and the store owner's balance is decreased.\n    /// This function terminates if purchases are suspended.\n    /// This function fires the `Purchased` event upon successful completion.\n    /// @param etherPrice Current price of ether\n    /// @return true if the function was successful \n    function purchase(uint256 etherPrice) public payable returns (bool success) {\n        require(suspended == false);\n        uint256 buxxAmount = (msg.value * etherPrice) / 1 ether;\n        require(balances[owner] >= buxxAmount);\n        balances[msg.sender] += buxxAmount;\n        balances[owner] -= buxxAmount;\n        owner.transfer(msg.value);\n        Purchased(msg.sender, msg.value, buxxAmount);\n        return true;\n    }\n\n    event Redeemed(address _customer, uint256 _buxxAmount, uint256 _newBalance);\n\n    /// @notice Invoked by store owner for customer redemption of Store Buxx.\n    /// The customer's balance is decreased and the store owner's balance is increased.\n    /// The value of a single Store Buck is approximately 1 cent in USD. This function\n    /// The function terminates if the customer's balance contains insufficient funds \n    /// to complete the redemeption.\n    /// This function fires the `Redeemed` event upon successful completion.\n    /// @param customer Account number of the customer\n    /// @param buxxAmount Number of StoreBuxx redeemed\n    /// @return true if the function was successful \n    function redeem(address customer, uint256 buxxAmount) public onlyOwner returns (bool success) {\n        require(balances[customer] >= buxxAmount);\n        balances[owner] += buxxAmount;\n        balances[customer] -= buxxAmount;\n        Redeemed(customer, buxxAmount, balances[customer]);\n        return true;\n    }\n\n    event Credited(address _customer, uint256 _buxxAmount, uint256 _newBalance);\n\n    /// @notice Invoked by store owner for in store credit of Store Buxx.\n    /// The customer's balance is increased and the store owner's balance is decreased.\n    /// This function fires the `Credited` event upon successful completion.\n    /// @param customer Account number of the customer\n    /// @param buxxAmount Number of StoreBuxx credited\n    /// @return true if the function was successful \n    function credit(address customer, uint256 buxxAmount) public onlyOwner returns (bool success) {\n        require(balances[owner] >= buxxAmount);\n        balances[customer] += buxxAmount;\n        balances[owner] -= buxxAmount;\n        Credited(customer, buxxAmount, balances[customer]);\n        return true;\n    }\n\n    /// @notice Check customer balance of Store Buxx.\n    /// @param customer Account number of the customer\n    /// @return Number of StoreBuxx owned by the customer\n    function balanceOf(address customer) public view returns (uint256 balance) {\n        return balances[customer];\n    }\n\n\n    event Halted(address _owner);\n\n    /// @notice Invoked by owner to halt purchases in case of major Ether price drop.\n    /// This function fires the `Halted` event upon successful completion.\n    function halt() public onlyOwner {\n        suspended = true;\n        Halted(owner);\n    }\n\n    event Resumed(address _owner);\n\n    /// @notice Invoked by owner to resume purchases.\n    /// This function fires the `Resumed` event upon successful completion.\n    function resume() public onlyOwner {\n        suspended = false;\n        Resumed(owner);\n    } \n\n    /// @notice Kill the EarnestMoney contract instance which removes it from the blockchain. \n    /// This function can only be executed by the owner.\n    function kill() public onlyOwner {\n        selfdestruct(owner);\n    }\n}",
  "sourcePath": "C:\\Users\\Jimmy\\ws_2018_interview\\sourceCode\\StoreBuxx\\contracts\\StoreBuxx.sol",
  "compiler": {
    "name": "solc",
    "version": "0.4.18+commit.9cf6e910.Emscripten.clang"
  },
  "schemaVersion": "1.0.1",
  "updatedAt": "2018-01-25T15:28:15.772Z"
}